{
  "contractName": "ChoiceContract",
  "abi": [
    {
      "inputs": [],
      "stateMutability": "nonpayable",
      "type": "constructor"
    },
    {
      "anonymous": false,
      "inputs": [
        {
          "indexed": false,
          "internalType": "uint256",
          "name": "optionId",
          "type": "uint256"
        }
      ],
      "name": "Voted",
      "type": "event"
    },
    {
      "inputs": [
        {
          "internalType": "uint256",
          "name": "",
          "type": "uint256"
        }
      ],
      "name": "optionIndexById",
      "outputs": [
        {
          "internalType": "uint256",
          "name": "",
          "type": "uint256"
        }
      ],
      "stateMutability": "view",
      "type": "function",
      "constant": true
    },
    {
      "inputs": [
        {
          "internalType": "uint256",
          "name": "",
          "type": "uint256"
        }
      ],
      "name": "options",
      "outputs": [
        {
          "internalType": "uint256",
          "name": "id",
          "type": "uint256"
        },
        {
          "internalType": "string",
          "name": "name",
          "type": "string"
        },
        {
          "internalType": "uint256",
          "name": "voteCount",
          "type": "uint256"
        }
      ],
      "stateMutability": "view",
      "type": "function",
      "constant": true
    },
    {
      "inputs": [
        {
          "internalType": "string",
          "name": "_name",
          "type": "string"
        }
      ],
      "name": "addOption",
      "outputs": [],
      "stateMutability": "nonpayable",
      "type": "function"
    },
    {
      "inputs": [
        {
          "internalType": "uint256",
          "name": "_optionId",
          "type": "uint256"
        }
      ],
      "name": "vote",
      "outputs": [],
      "stateMutability": "nonpayable",
      "type": "function"
    },
    {
      "inputs": [
        {
          "internalType": "uint256",
          "name": "_optionId",
          "type": "uint256"
        }
      ],
      "name": "getVoteCount",
      "outputs": [
        {
          "internalType": "uint256",
          "name": "",
          "type": "uint256"
        }
      ],
      "stateMutability": "view",
      "type": "function",
      "constant": true
    },
    {
      "inputs": [
        {
          "internalType": "uint256",
          "name": "_optionId",
          "type": "uint256"
        }
      ],
      "name": "getOptionName",
      "outputs": [
        {
          "internalType": "string",
          "name": "",
          "type": "string"
        }
      ],
      "stateMutability": "view",
      "type": "function",
      "constant": true
    },
    {
      "inputs": [],
      "name": "getOptionCount",
      "outputs": [
        {
          "internalType": "uint256",
          "name": "",
          "type": "uint256"
        }
      ],
      "stateMutability": "view",
      "type": "function",
      "constant": true
    }
  ],
  "bytecode": "0x608060405234801561000f575f80fd5b50610d0a8061001d5f395ff3fe608060405234801561000f575f80fd5b506004361061007b575f3560e01c8063a6bd542711610059578063a6bd5427146100fd578063b2c2f2e81461011b578063e8ad19861461014b578063edc550dc1461017b5761007b565b80630121b93f1461007f578063409e22051461009b5780635109df6c146100cd575b5f80fd5b610099600480360381019061009491906105f0565b610197565b005b6100b560048036038101906100b091906105f0565b61027b565b6040516100c4939291906106b4565b60405180910390f35b6100e760048036038101906100e291906105f0565b610335565b6040516100f491906106f0565b60405180910390f35b610105610455565b6040516101129190610710565b60405180910390f35b610135600480360381019061013091906105f0565b610460565b6040516101429190610710565b60405180910390f35b610165600480360381019061016091906105f0565b6104f9565b6040516101729190610710565b60405180910390f35b61019560048036038101906101909190610855565b61050e565b005b5f811180156101aa57505f805490508111155b6101e9576040517f08c379a00000000000000000000000000000000000000000000000000000000081526004016101e0906108e6565b60405180910390fd5b5f806001805f8581526020019081526020015f20546102089190610931565b8154811061021957610218610964565b5b905f5260205f2090600302019050806002015f81548092919061023b90610991565b91905055507f7f511e347bf51eed3be100b3194247d5207f05f3b33de7d31e3e8ee73199a0498260405161026f9190610710565b60405180910390a15050565b5f8181548110610289575f80fd5b905f5260205f2090600302015f91509050805f0154908060010180546102ae90610a05565b80601f01602080910402602001604051908101604052809291908181526020018280546102da90610a05565b80156103255780601f106102fc57610100808354040283529160200191610325565b820191905f5260205f20905b81548152906001019060200180831161030857829003601f168201915b5050505050908060020154905083565b60605f8211801561034a57505f805490508211155b610389576040517f08c379a0000000000000000000000000000000000000000000000000000000008152600401610380906108e6565b60405180910390fd5b5f6001805f8581526020019081526020015f20546103a79190610931565b815481106103b8576103b7610964565b5b905f5260205f20906003020160010180546103d290610a05565b80601f01602080910402602001604051908101604052809291908181526020018280546103fe90610a05565b80156104495780601f1061042057610100808354040283529160200191610449565b820191905f5260205f20905b81548152906001019060200180831161042c57829003601f168201915b50505050509050919050565b5f8080549050905090565b5f808211801561047457505f805490508211155b6104b3576040517f08c379a00000000000000000000000000000000000000000000000000000000081526004016104aa906108e6565b60405180910390fd5b5f6001805f8581526020019081526020015f20546104d19190610931565b815481106104e2576104e1610964565b5b905f5260205f209060030201600201549050919050565b6001602052805f5260405f205f915090505481565b5f60015f805490506105209190610a35565b90505f60405180606001604052808381526020018481526020015f815250908060018154018082558091505060019003905f5260205f2090600302015f909190919091505f820151815f015560208201518160010190816105819190610c05565b506040820151816002015550505f8054905060015f8381526020019081526020015f20819055505050565b5f604051905090565b5f80fd5b5f80fd5b5f819050919050565b6105cf816105bd565b81146105d9575f80fd5b50565b5f813590506105ea816105c6565b92915050565b5f60208284031215610605576106046105b5565b5b5f610612848285016105dc565b91505092915050565b610624816105bd565b82525050565b5f81519050919050565b5f82825260208201905092915050565b5f5b83811015610661578082015181840152602081019050610646565b5f8484015250505050565b5f601f19601f8301169050919050565b5f6106868261062a565b6106908185610634565b93506106a0818560208601610644565b6106a98161066c565b840191505092915050565b5f6060820190506106c75f83018661061b565b81810360208301526106d9818561067c565b90506106e8604083018461061b565b949350505050565b5f6020820190508181035f830152610708818461067c565b905092915050565b5f6020820190506107235f83018461061b565b92915050565b5f80fd5b5f80fd5b7f4e487b71000000000000000000000000000000000000000000000000000000005f52604160045260245ffd5b6107678261066c565b810181811067ffffffffffffffff8211171561078657610785610731565b5b80604052505050565b5f6107986105ac565b90506107a4828261075e565b919050565b5f67ffffffffffffffff8211156107c3576107c2610731565b5b6107cc8261066c565b9050602081019050919050565b828183375f83830152505050565b5f6107f96107f4846107a9565b61078f565b9050828152602081018484840111156108155761081461072d565b5b6108208482856107d9565b509392505050565b5f82601f83011261083c5761083b610729565b5b813561084c8482602086016107e7565b91505092915050565b5f6020828403121561086a576108696105b5565b5b5f82013567ffffffffffffffff811115610887576108866105b9565b5b61089384828501610828565b91505092915050565b7f496e76616c6964206f7074696f6e2e00000000000000000000000000000000005f82015250565b5f6108d0600f83610634565b91506108db8261089c565b602082019050919050565b5f6020820190508181035f8301526108fd816108c4565b9050919050565b7f4e487b71000000000000000000000000000000000000000000000000000000005f52601160045260245ffd5b5f61093b826105bd565b9150610946836105bd565b925082820390508181111561095e5761095d610904565b5b92915050565b7f4e487b71000000000000000000000000000000000000000000000000000000005f52603260045260245ffd5b5f61099b826105bd565b91507fffffffffffffffffffffffffffffffffffffffffffffffffffffffffffffffff82036109cd576109cc610904565b5b600182019050919050565b7f4e487b71000000000000000000000000000000000000000000000000000000005f52602260045260245ffd5b5f6002820490506001821680610a1c57607f821691505b602082108103610a2f57610a2e6109d8565b5b50919050565b5f610a3f826105bd565b9150610a4a836105bd565b9250828201905080821115610a6257610a61610904565b5b92915050565b5f819050815f5260205f209050919050565b5f6020601f8301049050919050565b5f82821b905092915050565b5f60088302610ac47fffffffffffffffffffffffffffffffffffffffffffffffffffffffffffffffff82610a89565b610ace8683610a89565b95508019841693508086168417925050509392505050565b5f819050919050565b5f610b09610b04610aff846105bd565b610ae6565b6105bd565b9050919050565b5f819050919050565b610b2283610aef565b610b36610b2e82610b10565b848454610a95565b825550505050565b5f90565b610b4a610b3e565b610b55818484610b19565b505050565b5b81811015610b7857610b6d5f82610b42565b600181019050610b5b565b5050565b601f821115610bbd57610b8e81610a68565b610b9784610a7a565b81016020851015610ba6578190505b610bba610bb285610a7a565b830182610b5a565b50505b505050565b5f82821c905092915050565b5f610bdd5f1984600802610bc2565b1980831691505092915050565b5f610bf58383610bce565b9150826002028217905092915050565b610c0e8261062a565b67ffffffffffffffff811115610c2757610c26610731565b5b610c318254610a05565b610c3c828285610b7c565b5f60209050601f831160018114610c6d575f8415610c5b578287015190505b610c658582610bea565b865550610ccc565b601f198416610c7b86610a68565b5f5b82811015610ca257848901518255600182019150602085019450602081019050610c7d565b86831015610cbf5784890151610cbb601f891682610bce565b8355505b6001600288020188555050505b50505050505056fea2646970667358221220172acd021f629a0bd926c7b3bad01d2376fb142dd896b9f4e60c44d11c7fe77064736f6c63430008150033",
  "immutableReferences": {},
  "source": "// SPDX-License-Identifier: MIT\npragma solidity >=0.8.18 <0.9.0;\n\ncontract ChoiceContract {\n    constructor() {}\n\n    struct Option {\n        uint256 id;\n        string name;\n        uint256 voteCount;\n    }\n\n    Option[] public options;\n    mapping(uint256 => uint256) public optionIndexById;\n\n    function addOption(string memory _name) public {\n        uint256 optionId = options.length + 1;\n        options.push(Option(optionId, _name, 0));\n        optionIndexById[optionId] = options.length;\n    }\n\n    event Voted(uint256 optionId);\n\n    function vote(uint256 _optionId) public {\n        require(\n            _optionId > 0 && _optionId <= options.length,\n            \"Invalid option.\"\n        );\n\n        Option storage option = options[optionIndexById[_optionId] - 1];\n        option.voteCount++;\n\n        emit Voted(_optionId);\n    }\n\n    function getVoteCount(uint256 _optionId) public view returns (uint256) {\n        require(\n            _optionId > 0 && _optionId <= options.length,\n            \"Invalid option.\"\n        );\n\n        return options[optionIndexById[_optionId] - 1].voteCount;\n    }\n\n    function getOptionName(\n        uint256 _optionId\n    ) public view returns (string memory) {\n        require(\n            _optionId > 0 && _optionId <= options.length,\n            \"Invalid option.\"\n        );\n\n        return options[optionIndexById[_optionId] - 1].name;\n    }\n\n    function getOptionCount() public view returns (uint256) {\n        return options.length;\n    }\n}\n",
  "sourcePath": "/home/christo/Documentos/cipher-choice/contracts/ChoiceContract.sol",
  "compiler": {
    "name": "solc",
    "version": "0.8.21+commit.d9974bed.Emscripten.clang"
  },
  "schemaVersion": "3.4.16",
  "updatedAt": "2024-05-08T15:43:44.776Z",
  "networkType": "ethereum",
  "devdoc": {
    "kind": "dev",
    "methods": {},
    "version": 1
  },
  "userdoc": {
    "kind": "user",
    "methods": {},
    "version": 1
  }
}